:1000000062C0000088C0000086C000006EC600000C
:1000100082C00000F3C500007EC000007CC000006C
:100020007AC0000078C0000076C0000074C00000F4
:1000300072C0000070C000006EC000006CC0000004
:100040000C94020B68C000000C9470080C94BD085E
:1000500062C0000060C000005EC000005CC0000024
:100060005AC0000058C00000000000002400270013
:100070002A0000000000250028002B0000000000DE
:1000800023002600290004040404040404040202DA
:100090000202020203030303030301020408102007
:1000A0004080010204081020010204081020000012
:1000B0000007000201000003040600000000000029
:1000C0000000EC06280A11241FBECFEFD8E0DEBFE7
:1000D000CDBF11E0A0E0B1E0EEE7F9E102C005908C
:1000E0000D92A838B107D9F712E0A8E8B1E001C035
:1000F0001D92A036B107E1F710E0C6ECD0E004C0D5
:100100002297FE010E94B90CC23CD107C9F70E9498
:10011000F70A0C94BD0C74CFAEE0B0E0E2E9F0E079
:100120000C948E0C0D891E898F89988D97FF02C0C3
:1001300080E090E801979E838D831A83098386E08F
:100140008C839E01255E3F4FCE010196698D7A8D8D
:10015000A90112D04D815E8157FD0AC02F813885DB
:10016000421753070CF49A01020F131FF801108273
:100170002E96E4E00C94AA0CABE0B0E0E2ECF0E0E8
:100180000C94800C3C012B015A01FC011782168251
:10019000838181FD03C06FEF7FEFB9C19AE0892EA3
:1001A0001E010894211C311CF3012381F20123FD5F
:1001B000859123FF81912F01882309F4A5C1853200
:1001C00039F423FD859123FF81912F01853221F49C
:1001D00090E0B301B7D1E8CF982FFF24EE24992403
:1001E000FFE1FF15D0F09B3269F09C3228F4903289
:1001F00059F0933291F40EC09D3249F0903369F476
:1002000041E024C052E0F52A84E0F82A28C098E0B2
:10021000F92A25C0E0E1FE2A22C0F7FC29C0892F77
:1002200080538A3070F4F6FE05C0989C902C1124FF
:10023000980E15C0E89CE02C1124E80EF0E2FF2A8D
:100240000EC09E3229F4F6FC5FC140E4F42A07C0D8
:100250009C3619F450E8F52A02C0983649F4F201A8
:1002600023FD959123FF91912F01992309F0B8CF98
:10027000892F8554833018F08052833038F444E05D
:1002800050E0A40EB51E5FE359830FC0933631F0E2
:10029000933779F0933509F052C01FC0F501808182
:1002A000898342E050E0A40EB51E610101E010E038
:1002B00011C0F501C080D180F6FC03C06FEF7FEF65
:1002C00002C0692D70E042E050E0A40EB51EC601E8
:1002D0002ED18C015FE7F52213C0F501C080D180DB
:1002E000F6FC03C06FEF7FEF02C0692D70E042E0C3
:1002F00050E0A40EB51EC6010FD18C0150E8F52ABE
:10030000F3FE06C018C080E290E0B3011BD1EA946E
:100310008E2D90E008171907B0F30DC0F601F7FC19
:100320008591F7FE81916F0190E0B3010BD1E1104F
:10033000EA94015010400115110581F7E2C094368E
:1003400011F0993661F5F7FE08C0F5012081318181
:100350004281538184E090E00AC0F501808191815F
:100360009C01442737FD4095542F82E090E0A80E71
:10037000B91E9FE6F92257FF09C050954095309568
:1003800021953F4F4F4F5F4FE0E8FE2ACA01B90168
:10039000A1012AE030E002D1D82ED2183FC0953713
:1003A00029F41F2D1F7E2AE030E01DC01F2D197F6C
:1003B0009F3661F0903720F4983509F0A5C00FC042
:1003C000903739F0983709F09FC004C028E030E03A
:1003D0000AC0106114FD146020E130E004C014FD77
:1003E000166020E132E017FF08C0F50160817181DD
:1003F0008281938144E050E008C0F50180819181C1
:10040000BC0180E090E042E050E0A40EB51EA101E6
:10041000C5D0D82ED2188FE7F82EF122F6FE0BC0E9
:100420005EEFF522D91438F4F4FE07C0F2FC05C0E3
:100430008FEEF82202C01D2D01C0192DF4FE0DC053
:10044000FE01ED0DF11D8081803319F499EEF92242
:1004500008C01F5FF2FE05C003C08F2D867809F02B
:100460001F5F0F2DF3FC13C0F0FE0EC01E1510F021
:100470009D2C0AC09D2C9E0C911A1E2D05C080E259
:1004800090E0B3015FD01F5F1E15C8F304C01E15B6
:1004900010F4E11A01C0EE2404FF0EC080E390E0E6
:1004A000B30150D002FF1BC001FD03C088E790E0FC
:1004B0000EC088E590E00BC0802F867881F001FFA8
:1004C00002C08BE201C080E2F7FC8DE290E0B30154
:1004D00039D005C080E390E0B30134D09A94D914A8
:1004E000C8F3DA94F101ED0DF11D808190E0B301C4
:1004F00029D0DD20B1F705C080E290E0B30122D021
:10050000EA94EE20C9F750CEF30166817781CB01E2
:100510002B96E2E10C949C0CFC010590615070401C
:100520000110D8F7809590958E0F9F1F0895FC01BC
:100530006150704001900110D8F7809590958E0F12
:100540009F1F08950F931F93CF93DF938C01EB01AF
:100550008B8181FF1BC082FF0DC02E813F818C816A
:100560009D812817390764F4E881F9810193F983A3
:10057000E88306C0E885F985802F0995892B31F439
:100580008E819F8101969F838E8302C00FEF1FEFA4
:10059000C801DF91CF911F910F910895FA01AA2709
:1005A000283051F1203181F1E8946F936E7F6E5FB6
:1005B0007F4F8F4F9F4FAF4FB1E03ED0B4E03CD064
:1005C000670F781F891F9A1FA11D680F791F8A1F47
:1005D000911DA11D6A0F711D811D911DA11D20D0AE
:1005E00009F468943F912AE0269F11243019305D68
:1005F0003193DEF6CF010895462F4770405D419359
:10060000B3E00FD0C9F7F6CF462F4F70405D4A33A5
:1006100018F0495D31FD4052419302D0A9F7EACF6D
:10062000B4E0A6959795879577956795BA95C9F79C
:1006300000976105710508959B01AC010A2E06948F
:100640005795479537952795BA95C9F7620F731F48
:10065000841F951FA01D0895DF93CF9300D000D075
:10066000CDB7DEB784E189838A838B838C8385E36E
:1006700092E040E056E960E070E0BAD58CE891E0A5
:10068000BE016F5F7F4FABD30F900F900F900F9015
:10069000CF91DF9108958F929F92AF92BF92CF92A8
:1006A000DF92EF92FF920F931F93DF93CF93CDB71B
:1006B000DEB7C850D1400FB6F894DEBF0FBECDBF35
:1006C000DE011196E0E7F1E088E001900D928150A3
:1006D000E1F7E0D76B017C0180918801909189015D
:1006E000A0918A01B0918B01A7019601281B390BBB
:1006F0004A0B5B0BDA01C901805A9648A140B04011
:1007000008F49CC04DB75EB74E5050400FB6F894F9
:100710005EBF0FBE4DBF0DB71EB70F5F1F4F99E0F5
:10072000A92EB12CAC0EBD1EADB7BEB71296BC92B1
:10073000AE921197812C81E0982EF80193828282EB
:1007400080E091E095838483C701B60120E432E420
:100750004FE050E00E94430CD80116962D933D9334
:100760004D935C931997C701B60120E432E44FE042
:1007700050E00E94430C20E137E240E050E00E944C
:10078000430CF8012287338744875587C5DC2DB792
:100790003EB7225F3F4F0FB6F8943EBF0FBE2DBF4E
:1007A00085E392E0B50110D78CE891E0BE016F5F60
:1007B0007F4F9FD08823A9F54DB75EB74E5050406C
:1007C0000FB6F8945EBF0FBE4DBFEDB7FEB73196C2
:1007D000ADB7BEB71296BC92AE9211979382828249
:1007E00082E191E09583848389819A8197838683CE
:1007F0008B819C81918780878D819E819387828761
:100800008F8198859587848787DCEDB7FEB73E9604
:100810000FB6F894FEBF0FBEEDBF85E392E0B501C1
:1008200004C085E392E069E471E0D0D6C09288010B
:10083000D0928901E0928A01F0928B01C85FDE4F6D
:100840000FB6F894DEBF0FBECDBFCF91DF911F91E1
:100850000F91FF90EF90DF90CF90BF90AF909F905F
:100860008F900895FC012CED35E031832083338394
:10087000228388EE93E095838483378326831186D1
:100880001086138612861586148617861686109291
:10089000A9011092A8011092AC011092AB01109224
:1008A000A3011092A2011092A6011092A50128EBBB
:1008B0003BE030936D0120936C0130936F012093E6
:1008C0006E0180ED97E09093690180936801309309
:1008D0006B0120936A011092A7011092AA01109255
:1008E000A1011092A401108A118A128A138A148A13
:1008F0000895CF93DF93FC01DB018089208531854A
:10090000882309F4FBC080916C0190916D0196954C
:100910008795820F931F23E0883E920718F428EEF4
:1009200033E007C09C0167E0813D960710F020EDA1
:1009300037E04189403210F550E080E290E0841BBE
:10094000950BEC012C9FC0012D9F900D3C9F900DAD
:10095000112420813181B901469F9001479F300DBC
:10096000569F300D1124820F931F25E09695879591
:100970002A95E1F79183808360E003C0318320836F
:1009800061E020916E0130916F0136952795828547
:100990009385280F391F73E0283E370718F428EE97
:1009A00033E006C087E0213D380710F020ED37E046
:1009B0004289403208F550E080E290E0841B950BBC
:1009C000EC012C9FC0012D9F900D3C9F900D112498
:1009D00022813381E9014C9F90014D9F300D5C9F36
:1009E000300D1124820F931F55E0969587955A95E7
:1009F000E1F79383828303C03383228361E02091F4
:100A00006801309169013695279584859585280F71
:100A1000391F73E0283E370718F428EE33E006C08C
:100A200087E0213D380710F020ED37E04389403260
:100A300008F550E080E290E0841B950BEC012C9FC0
:100A4000C0012D9F900D3C9F900D11242481358174
:100A5000E9014C9F90014D9F300D5C9F300D11249A
:100A6000820F931F25E0969587952A95E1F7958348
:100A7000848303C03583248361E020916A0130912F
:100A80006B013695279586859785280F391F73E06A
:100A9000283E370718F428EE33E006C087E0213DF2
:100AA000380710F020ED37E04489403218F550E067
:100AB00080E290E0841B950BEC012C9FC0012D9FE0
:100AC000900D3C9F900D112426813781E9014C9FA8
:100AD00090014D9F300D5C9F300D1124820F931FAC
:100AE00075E0969587957A95E1F7978386836623D7
:100AF00019F469C03783268381E07DC080916C0141
:100B000090916D0196958795820F931F23E0883E03
:100B1000920718F488EE93E006C067E0813D9607DF
:100B200010F080ED97E09183808320916E013091E9
:100B30006F013695279582859385280F391F73E0BD
:100B4000283E370718F488EE93E007C0C90127E074
:100B5000813D920710F080ED97E09383828320918E
:100B60006801309169013695279584859585280F10
:100B7000391F63E0283E360718F488EE93E007C07B
:100B8000C90177E0213D370710F080ED97E09583AC
:100B9000848320916A0130916B0136952795868573
:100BA0009785280F391F83E0283E380718F488EE10
:100BB00093E007C0C90127E0813D920710F080ED66
:100BC00097E0978386838081918111969C938E9381
:100BD0008281938113969C938E9312978481958141
:100BE00015969C938E9314978681978117969C9364
:100BF0008E93169780E0DF91CF9108951F920F9208
:100C00000FB60F9211242F933F934F935F938F93BF
:100C10009F9340918400509185004A9B0CC0809125
:100C2000A701882359F581E08093A7015093A9017A
:100C30004093A80123C08091A7018130F9F410925C
:100C4000A7018091A8019091A9014817590750F474
:100C50002091A8013091A901CA01805C9346821BB2
:100C6000930B08C08091A8019091A9019A01281BBB
:100C7000390BC90190936D0180936C014B9B0CC0A3
:100C80008091AA01882331F581E08093AA015093D5
:100C9000AC014093AB011EC08091AA018130D1F418
:100CA0001092AA018091AB019091AC0148175907AD
:100CB00038F48091AB019091AC01405C534604C084
:100CC0008091AB019091AC01481B590B50936F017F
:100CD00040936E019F918F915F914F913F912F9122
:100CE0000F900FBE0F901F9018951F920F920FB686
:100CF0000F9211242F933F934F935F938F939F9362
:100D000040918400509185001D9B0CC08091A101F1
:100D1000882359F581E08093A1015093A30140936A
:100D2000A20123C08091A1018130F9F41092A101A8
:100D30008091A2019091A3014817590750F4209186
:100D4000A2013091A301CA01805C9346821B930BE0
:100D500008C08091A2019091A3019A01281B390B30
:100D6000C90190936901809368011B9B0CC080911D
:100D7000A401882331F581E08093A4015093A6015A
:100D80004093A5011EC08091A4018130D1F410923E
:100D9000A4018091A5019091A6014817590738F444
:100DA0008091A5019091A601405C534604C08091BA
:100DB000A5019091A601481B590B50936B014093DC
:100DC0006A019F918F915F914F913F912F910F9069
:100DD0000FBE0F901F9018958CE891E043CD2F9295
:100DE0003F924F925F926F927F928F929F92AF92BB
:100DF000BF92CF92DF92EF92FF920F931F93DF93F8
:100E0000CF93CDB7DEB72F970FB6F894DEBF0FBEE6
:100E1000CDBF9F878E87FB018081803218F021E053
:100E20002D8705C0AE85BF8551968C931D86818127
:100E3000803218F0B1E0BD8704C0AE85BF85529600
:100E40008C938281803218F0B1E0BD8704C0AE85FA
:100E5000BF8553968C936381603218F0B1E0BD87F3
:100E600003C0EE85FF85648B82E060E0CDD483E033
:100E700060E0CAD48BE060E0C7D48DE060E0C4D409
:100E800082EA809380008AE18093810088EB9BE076
:100E9000909389008093880090938B0080938A00C0
:100EA00080E49CE9909387008093860088E2809399
:100EB0006B008CE080936D0080916800846080936B
:100EC000680080916800816080936800AE85BF856E
:100ED00050961C9220EC3DE540E050E029873A878F
:100EE0004B875C8760E8262E6EE3362E412C512C12
:100EF00050EC652E5DE5752E812C912C40ECA42ED6
:100F00004DE5B42EC12CD12C31E0E32EF12C012D76
:100F1000112D8E859F85BE016F5F7F4FEADC698151
:100F20007A8180E090E024E0660F771F881F991F88
:100F30002A95D1F76A197B098C099D099701A801A7
:100F4000C4D4C901DA01A80EB91ECA1EDB1E6B810A
:100F50007C8180E090E0B4E0660F771F881F991FC6
:100F6000BA95D1F766197709880999099701A801F7
:100F7000ACD4C901DA01680E791E8A1E9B1E6D81F0
:100F80007E8180E090E0A4E0660F771F881F991FA4
:100F9000AA95D1F762197309840995099701A801E7
:100FA00094D4C901DA01280E391E4A1E5B1E6F81D6
:100FB000788580E090E0F4E0660F771F881F991F26
:100FC000FA95D1F729853A854B855C85621B730BB1
:100FD000840B950B9701A80178D4C901DA01298502
:100FE0003A854B855C85280F391F4A1F5B1F29876F
:100FF0003A874B875C8764E170E080E090E070D3D3
:101000000894E11CF11C011D111D35E6E316F104E5
:101010000105110509F07DCFE4E0D594C794B7949C
:10102000A794EA95D1F72CED35E0C9018A199B09FF
:10103000AE85BF8519969C938E93189774E095940E
:101040008794779467947A95D1F7C901861997099F
:101050001B969C938E931A9764E05594479437940B
:1010600027946A95D1F788EE93E0821993091D962B
:101070009C938E931C9789859A85AB85BC8554E09B
:10108000B595A795979587955A95D1F7281B390B54
:10109000AE85BF851F963C932E931E97BD85BB23BF
:1010A00021F481E0EE85FF85808B8D852F960FB62C
:1010B000F894DEBF0FBECDBFCF91DF911F910F918E
:1010C000FF90EF90DF90CF90BF90AF909F908F9068
:1010D0007F906F905F904F903F902F90089508956C
:1010E0001F920F920FB60F9211242F933F934F939D
:1010F0008F939F93EF93FF938091C00082FD1DC05B
:101100004091C6002091ED013091EE012F5F3F4FDD
:101110002F7330708091EF019091F00128173907FB
:1011200071F0E091ED01F091EE01E355FE4F408347
:101130003093EE012093ED0102C08091C600FF9133
:10114000EF919F918F914F913F912F910F900FBEF3
:101150000F901F901895E0914102F0914202E05CDF
:10116000FF4F8191919120813181821B930B8F736D
:101170009070892B09F0B3CF08951F920F920FB68C
:101180000F9211242F933F938F939F93EF93FF938D
:1011900020913102309132028091330290913402D9
:1011A0002817390731F48091C1008F7D8093C100E9
:1011B00014C0E0913302F0913402EF50FE4F2081D1
:1011C000809133029091340201968F7390709093C6
:1011D0003402809333022093C600FF91EF919F91D8
:1011E0008F913F912F910F900FBE0F901F901895E8
:1011F000AF92BF92DF92EF92FF920F931F93CF9324
:10120000DF93EC017A018B01DD24403081EE580739
:1012100080E0680780E0780711F0DD24D39491E046
:10122000A92EB12CEC89FD89DD2069F0C50108A04B
:1012300002C0880F991F0A94E2F7808360E079E08A
:101240008DE390E005C0108260E874E88EE190E0E4
:10125000A801970118D32150304040405040569586
:1012600047953795279580E12030380720F0DD201D
:1012700011F0DD24D7CFE889F9893083EA89FB8929
:10128000208319A2EE89FF89408121E030E0C90165
:101290000C8C02C0880F991F0A94E2F7482B4083F8
:1012A000EE89FF894081C9010D8C02C0880F991F0A
:1012B0000A94E2F7482B4083EE89FF894081C901F7
:1012C0000E8C02C0880F991F0A94E2F7482B4083C6
:1012D000EE89FF8980810F8C02C0220F331F0A9490
:1012E000E2F7209528232083DF91CF911F910F9162
:1012F000FF90EF90DF90BF90AF900895DC011C96B7
:10130000ED91FC911D97E05CFF4F2191319180811F
:101310009181281B390B2F733070C9010895DC01AE
:101320001C96ED91FC911D97E05CFF4F208131816F
:10133000E054F040DF01AE5BBF4F8D919C9111975F
:101340002817390719F42FEF3FEF07C08D919C91B3
:10135000E80FF91F8081282F30E0C9010895DC01D2
:101360001C96ED91FC911D97E05CFF4F208131812F
:10137000E054F040DF01AE5BBF4F8D919C9111971F
:101380002817390719F42FEF3FEF10C08D919C916A
:101390001197E80FF91F20818D919C91119701966B
:1013A0008F73907011969C938E9330E0C9010895CD
:1013B000DC0191968C919197882339F05496ED91A8
:1013C000FC915597808186FFF9CF91961C920895E4
:1013D000CF93DF93EC01EE85FF85E05CFF4F20812A
:1013E0003181E054F0402F5F3F4F2F733070DF01A9
:1013F000AE5BBF4F8D919C91119728173907D1F3A0
:10140000E05CFF4F80819181E054F040E80FF91FCC
:101410006083EE85FF85E05CFF4F31832083EE899A
:10142000FF89208181E090E00F8C02C0880F991F16
:101430000A94E2F7282B208381E089A3EC89FD89B7
:1014400080818064808381E090E0DF91CF91089576
:10145000109238021092370288EE93E0A0E0B0E0DC
:101460008093390290933A02A0933B02B0933C02DE
:101470008CE791E090933602809335028DEA91E0FB
:10148000909342028093410281EF91E09093440255
:101490008093430285EC90E090934602809345024E
:1014A00084EC90E0909348028093470280EC90E0B7
:1014B00090934A028093490281EC90E090934C0211
:1014C00080934B0282EC90E090934E0280934D0209
:1014D00086EC90E09093500280934F0284E08093DA
:1014E000510283E08093520287E08093530285E0AB
:1014F0008093540281E0809355020895CF92DF9249
:10150000EF92FF920F931F93CF93DF937C016B01B8
:101510008A01C0E0D0E00FC0D6016D916D01D70106
:10152000ED91FC910190F081E02DC7010995C80F64
:10153000D91F015010400115110571F7CE01DF913F
:10154000CF911F910F91FF90EF90DF90CF90089572
:10155000EF92FF920F931F938C01DC01ED91FC91B0
:101560000190F081E02D6DE009957C01D801ED91AD
:10157000FC910190F081E02DC8016AE009959C0181
:101580002E0D3F1DC9011F910F91FF90EF900895FF
:10159000CF93DF93EC016115710519F420E030E081
:1015A0000FC0DB010D900020E9F71197A61BB70BC8
:1015B000E881F9810280F381E02DAD0109959C015C
:1015C000C901DF91CF910895E3CF0895EF92FF9283
:1015D0000F931F937C01DCDF8C01C701B9DF080F7B
:1015E000191FC8011F910F91FF90EF900895CF939D
:1015F000DF93CFD031D8CBEAD8E04DD82097E9F3AC
:10160000AADDFBCF1F920F920FB60F9211242F93DA
:101610003F938F939F93AF93BF9380915B02909181
:101620005C02A0915D02B0915E0230915F02019672
:10163000A11DB11D232F2D5F2D3720F02D570196B1
:10164000A11DB11D20935F0280935B0290935C0209
:10165000A0935D02B0935E02809157029091580270
:10166000A0915902B0915A020196A11DB11D80931B
:10167000570290935802A0935902B0935A02BF9117
:10168000AF919F918F913F912F910F900FBE0F902F
:101690001F9018959FB7F8942091570230915802E7
:1016A0004091590250915A0286B5A89B06C08F3FBF
:1016B00021F02F5F3F4F4F4F5F4F9FBF542F432F5E
:1016C000322F2227280F311D411D511D82E0220F8C
:1016D000331F441F551F8A95D1F7B901CA010895D8
:1016E0009B01AC017FB7F89480915702909158020A
:1016F000A0915902B0915A0266B5A89B05C06F3FF0
:1017000019F00196A11DB11D7FBFBA2FA92F982FE7
:101710008827860F911DA11DB11D62E0880F991FBA
:10172000AA1FBB1F6A95D1F7BC012DC0FFB7F89463
:101730008091570290915802A0915902B0915A029B
:10174000E6B5A89B05C0EF3F19F00196A11DB11D9C
:10175000FFBFBA2FA92F982F88278E0F911DA11D8B
:10176000B11DE2E0880F991FAA1FBB1FEA95D1F7B0
:10177000861B970B885E9340C8F221503040404052
:10178000504068517C4F211531054105510571F6D6
:101790000895789484B5826084BD84B5816084BDE9
:1017A00085B5826085BD85B5816085BDEEE6F0E0DA
:1017B000808181608083E1E8F0E010828081826036
:1017C0008083808181608083E0E8F0E080818160B7
:1017D0008083E1EBF0E0808184608083E0EBF0E0E7
:1017E000808181608083EAE7F0E08081846080838B
:1017F0008081826080838081816080838081806835
:1018000080831092C1000895CF93DF93482F50E05A
:10181000CA0186569F4FFC0134914A575F4FFA0127
:101820008491882369F190E0880F991FFC01E859A1
:10183000FF4FA591B491FC01EE58FF4FC591D49193
:10184000662351F42FB7F8948C91932F90958923A8
:101850008C93888189230BC0623061F42FB7F89490
:101860008C91932F909589238C938881832B8883E7
:101870002FBF06C09FB7F8948C91832B8C939FBF8A
:10188000DF91CF910895A1E21A2EAA1BBB1BFD0187
:101890000DC0AA1FBB1FEE1FFF1FA217B307E4074F
:1018A000F50720F0A21BB30BE40BF50B661F771FA7
:1018B000881F991F1A9469F7609570958095909587
:1018C0009B01AC01BD01CF01089597FB092E0526B0
:1018D0000ED057FD04D0D7DF0AD0001C38F4509545
:1018E0004095309521953F4F4F4F5F4F0895F6F744
:1018F00090958095709561957F4F8F4F9F4F08957C
:101900002F923F924F925F926F927F928F929F920F
:10191000AF92BF92CF92DF92EF92FF920F931F93FD
:10192000CF93DF93CDB7DEB7CA1BDB0B0FB6F894AE
:10193000DEBF0FBECDBF09942A88398848885F84EE
:101940006E847D848C849B84AA84B984C884DF805F
:10195000EE80FD800C811B81AA81B981CE0FD11D43
:101960000FB6F894DEBF0FBECDBFED010895EE0FA8
:0E197000FF1F0590F491E02D0994F894FFCF2D
:10197E0054696D653A20256C752E2530326C7520B4
:10198E0073002C202020526F6C6C3A202534752069
:10199E00202050697463683A202534752020205425
:1019AE0068726F74746C653A20253475202020207F
:1019BE005961773A20253475002C20204572726FBC
:1019CE00722052656164696E6720526164696F208E
:1019DE0056616C7565732100D007B80BB80BB80B48
:1019EE00DC05DC05E803DC0500000000E8097E0AE2
:0819FE007E09AF098F09D80929
:00000001FF
