:1000000066C000000C944A210C94772188C000003F
:1000100086C0000084C0000082C0000080C00000D4
:100020007EC000007CC000007AC0000078C00000E4
:1000300076C0000074C0000072C0000070C00000F4
:100040000C94B1216CC000000C94A01E0C94ED1E09
:1000500066C0000064C0000062C0000060C0000014
:100060000C94CF1C5CC0000000000000240027009E
:100070002A0000000000250028002B0000000000DE
:1000800023002600290004040404040404040202DA
:100090000202020203030303030301020408102007
:1000A0004080010204081020010204081020000012
:1000B0000007000201000003040600000000000029
:1000C0000000E304C90C8D13E317751B582011249D
:1000D0001FBECFEFD8E0DEBFCDBF12E0A0E0B1E0A1
:1000E000ECE7F7E402C005900D92AC32B107D9F706
:1000F00015E0ACE2B2E001C01D92AF39B107E1F703
:1001000010E0CEECD0E004C02297FE010E94B8239C
:10011000C23CD107C9F70E94A4210C94BC2370CF24
:100120002F923F924F925F926F927F928F929F9207
:10013000AF92BF92CF92DF92EF92FF920F931F93F5
:10014000CF93DF93CDB7DEB72C970FB6F894DEBF11
:100150000FBECDBF69837A838B839C832D833E83BF
:100160004F8358878C81992787FD9095A92FB92FA8
:10017000BC01CD010E9446237B018C018885992713
:1001800087FD9095A92FB92F29813A814B815C81F8
:100190005070BC01CD010E944623DC01CB01E80E6A
:1001A000F91E0A1F1B1F8B81682E7724882499242F
:1001B0008F81282E332444245524C401B301A20185
:1001C00091010E944623DC01CB01AA24B82EC92E3E
:1001D000DA2EAE0CBF1CC01ED11E8D819E819C01EB
:1001E0004427552729873A874B875C87C401B30189
:1001F0000E9446237B018C0189819A813C018824DD
:100200009924C401B301A20191010E944623DC019B
:10021000CB01E80EF91E0A1F1B1FBB27A12F902F31
:100220008F2D8A0D9B1DAC1DBD1D37E016950795C2
:10023000F794E7943A95D1F721E030E040E050E0C0
:10024000E222F32204231523E80EF91E0A1F1B1FC6
:10025000C401B30129853A854B855C850E944623FC
:10026000DC01CB018B2F9927AA27BB278E0D9F1D61
:10027000A01FB11FBC01CD012C960FB6F894DEBFB4
:100280000FBECDBFDF91CF911F910F91FF90EF90E7
:10029000DF90CF90BF90AF909F908F907F906F90A6
:1002A0005F904F903F902F900895FF920F931F9370
:1002B000CF93DF9300E010E0FF2497FF02C057FDCB
:1002C0000AC016161706180619063CF4121613066D
:1002D0001406150614F4F1E0FF2E97FF07C0909561
:1002E0008095709561957F4F8F4F9F4F57FF07C047
:1002F00050954095309521953F4F4F4F5F4FC0E04F
:10030000D0E06F3FEFEF7E07EFEF8E07EFE39E0742
:1003100044F4660F771F881F991F2196C831D105B5
:1003200084F320FD08C055954795379527950F5FB5
:100330001F4F20FFF8CF0E949B23D095C195DF4F20
:10034000C01BD10B68961C161D0644F404C0220F76
:10035000331F441F551FCA95D2F719C0D7FF17C0C6
:10036000C095D09504C05595479537952795CA9562
:10037000D2F7DA01C901B595A795979587952170B0
:10038000307040705070280F391F4A1F5B1FFF20CC
:1003900039F450954095309521953F4F4F4F5F4F21
:1003A000CA01B901DF91CF911F910F91FF9008957C
:1003B000EF92FF920F931F93CF93DF93CDB7DEB7EA
:1003C0002C970FB6F894DEBF0FBECDBF6D837E8332
:1003D0008F8398877A0119861A861B861C8611E0FE
:1003E000452B21F47E010894E11CF11C60E02D8175
:1003F0003E814F815885263D7EE7370778E44707E1
:1004000076E05707FCF0DA01C901865D9E47A844F3
:10041000B640613041F460E0DA01C901855D9E4774
:10042000A844B64001C06F5F9C01AD01863DEEE778
:100430009E07E8E4AE07E6E0BE072CF78D839E83B7
:10044000AF83B88760E08D819E81AF81B885BB2383
:10045000BCF49C01AD012A523148474B594F6130E1
:1004600031F460E0215030404040504001C06F5FA7
:10047000DA01C90157FDEDCF2D833E834F835887A5
:100480008D819E81AF81B8858C36FFE39F07F4E2B2
:10049000AF07F3E0BF074CF08B569F43A442B34035
:1004A0008D839E83AF83B88713E02D813E814F817A
:1004B0005885263B7FE1370772E9470771E0570708
:1004C0006CF08BE69FE3A4E2B3E0821B930BA40BDA
:1004D000B50B8D839E83AF83B8871F5F8D819E810F
:1004E000AF81B8850097A105B105B1F41250123063
:1004F00028F480E090E0A0E0BFEF04C080E090E04E
:10050000A0E0B1E0F70180839183A283B38360E030
:1005100070E080E090E055C08CEE94E7ABE9B0E08D
:10052000F70180839183A283B38300E028E1AE01C9
:100530004B5F5F4FBE01675F7F4FC7010E94C403DF
:10054000812F99278330910549F0843091051CF45F
:10055000029799F032C0049709F12FC089859A85D6
:10056000AB85BC85B095A095909581959F4FAF4F79
:10057000BF4F89879A87AB87BC87F70180819181BC
:10058000A281B381B095A095909581959F4FAF4F73
:10059000BF4F80839183A283B3830FC089859A85DF
:1005A000AB85BC85B095A095909581959F4FAF4F39
:1005B000BF4F89879A87AB87BC8769857A858B858A
:1005C0009C852C960FB6F894DEBF0FBECDBFDF9191
:1005D000CF911F910F91FF90EF9008958F929F926E
:1005E000AF92BF92CF92DF92EF92FF920F931F9341
:1005F000CF93DF93CDB7DEB72C970FB6F894DEBF5D
:100600000FBECDBF69837A838B839C832D833E830A
:100610004F83588719861A861B861C8659016A01E2
:10062000211531054105510519F4CA01B90199C0D7
:1006300079018A01E094F09400951095EE2417FD5D
:10064000E394FF24002711278E2C29813A814B81C6
:100650005C81211531054105510561F4EE2029F039
:100660006FEF7FEF8FEF9FE77CC061E070E080E08D
:1006700090E877C0DA01C90180959095A095B09572
:100680008827B7FD83959927AA27BB27982E88230B
:1006900059F488279927DC01821B930BA40BB50B17
:1006A00089839A83AB83BC83EE2059F488279927EA
:1006B000DC018A199B09AC09BD098D839E83AF8338
:1006C000B8878C8186FD03C0888586FF18C0898124
:1006D0009A81AB81BC81B595A795979587958983BC
:1006E0009A83AB83BC838D819E81AF81B885B5959C
:1006F000A795979587958D839E83AF83B88701E0F3
:1007000028E1AE01475F5F4FBE016B5F7F4FCE01B7
:1007100001960E94C403882059F069857A858B85EB
:100720009C859920F1F46B54704E8D469E4F19C0F4
:1007300069857A858B859C85992041F09095809577
:10074000709561957F4F8F4F9F4F0BC0909580950F
:10075000709561957F4F8F4F9F4F655B7F418249B9
:1007600091402C960FB6F894DEBF0FBECDBFDF913F
:10077000CF911F910F91FF90EF90DF90CF90BF909E
:10078000AF909F908F9008952F923F924F925F92DB
:100790006F927F928F929F92AF92BF92CF92DF9291
:1007A000EF92FF920F931F93CF93DF93CDB7DEB7F6
:1007B000C756D0400FB6F894DEBF0FBECDBF2C0198
:1007C0001B01A7964EAF5FAFA797A8962FAFA8972C
:1007D000602E84E6DE011196E8EAF1E001900D92C8
:1007E0008A95E1F7F201C080D180E280F380FB01BD
:1007F0004081518162817381A796EEADFFADA797CD
:1008000080809180A280B380772497018601662042
:1008100029F0141615061606170624F4662069F545
:10082000B7FC2BC0E72DFF27DB01CA010E2E04C049
:10083000B595A795979587950A94D2F7C81AD90ABE
:10084000EA0AFB0A0E2E04C03595279517950795E1
:100850000A94D2F7400F511F621F731FEE0FFF1F44
:10086000EE0FFF1FEC0FFD1F81819281A381B481E8
:10087000881A990AAA0ABB0A2AC0E72DFF27DB01BA
:10088000CA010E2E04C0B595A795979587950A9431
:10089000D2F7C80ED91EEA1EFB1E0E2E04C03595D7
:1008A0002795179507950A94D2F7401B510B620BB9
:1008B000730BEE0FFF1FEE0FFF1FEC0FFD1F81816B
:1008C0009281A381B481880E991EAA1EBB1E7394C7
:1008D000A896FFADA897F71508F097CFF201C08250
:1008E000D182E282F382F101408351836283738378
:1008F000A796EEADFFADA79780829182A282B382C8
:10090000C959DF4F0FB6F894DEBF0FBECDBFDF91E0
:10091000CF911F910F91FF90EF90DF90CF90BF90FC
:10092000AF909F908F907F906F905F904F903F908F
:100930002F9008950E94F92120912C0230912D02D0
:1009400040912E0250912F02621B730B840B950B6A
:10095000605177428040904018F10E94F921209127
:100960002C0230912D0240912E0250912F02621BD9
:10097000730B840B950B609330027093310280935C
:100980003202909333020E94F92160932C027093FB
:100990002D0280932E0290932F02ECD2B1D11BC670
:1009A0000895A8D365E070E080E090E00E941F22E7
:1009B0000E94F92160932C0270932D0280932E02E5
:1009C00090932F02089581E090E0A0E0B0E0809342
:1009D000720290937302A0937402B0937502109206
:1009E0007602109277021092780210927902109299
:1009F0007A0210927B0210927C0210927D02109279
:100A00007E0210927F0210928002109281028093E7
:100A1000820290938302A0938402B0938502109285
:100A20008602109287021092880210928902109218
:100A30008A0210928B0210928C0210928D021092F8
:100A40008E0210928F021092900210929102809367
:100A5000920290939302A0939402B0939502109205
:100A60009602109297021092980210929902109298
:100A70009A0210929B0210929C0210929D02109278
:100A80009E0210929F021092A0021092A1028093E7
:100A9000A2029093A302A093A402B093A502109285
:100AA000A6021092A7021092A8021092A902109218
:100AB000AA021092AB021092AC021092AD021092F8
:100AC000AE021092AF021092B0021092B102809367
:100AD000B2029093B302A093B402B093B502109205
:100AE000B6021092B7021092B8021092B902109298
:100AF000BA021092BB021092BC021092BD02109278
:100B0000BE021092BF021092C0021092C1028093E6
:100B1000C2029093C302A093C402B093C502109284
:100B2000C6021092C7021092C8021092C902109217
:100B3000CA021092CB021092CC021092CD021092F7
:100B4000CE021092CF021092D0021092D102809366
:100B5000D2029093D302A093D402B093D502109204
:100B6000D6021092D7021092D8021092D902109297
:100B7000DA021092DB021092DC021092DD02109277
:100B8000DE021092DF021092E0021092E1028093E6
:100B9000E2029093E302A093E402B093E502109284
:100BA000E6021092E7021092E8021092E902109217
:100BB000EA021092EB021092EC021092ED021092F7
:100BC000EE021092EF021092F0021092F102809366
:100BD000F2029093F302A093F402B093F502109204
:100BE000F6021092F7021092F8021092F902109297
:100BF000FA021092FB021092FC021092FD02109277
:100C0000FE021092FF021092000310920103089559
:100C10002F923F924F925F926F927F928F929F920C
:100C2000AF92BF92CF92DF92EF92FF920F931F93FA
:100C30008C016A017B011901FC0120813181428113
:100C400053812F5F3F4F4F4F5F4F2083318342834C
:100C5000538384809580A680B78026013701481889
:100C600059086A087B08C301B2010E949B23280D22
:100C7000391D4A1D5B1DF801248335834683578344
:100C800084849584A684B784C21AD30AE40AF50A38
:100C9000C301B201A701960143DA680D791D8A1DCF
:100CA0009B1DF8016487758786879787208131812E
:100CB0004281538121503040404050400E949B234C
:100CC000F8012087318742875387F10120833183E0
:100CD00042835383F80164817581868197811F91D6
:100CE0000F91FF90EF90DF90CF90BF90AF909F90CB
:100CF0008F907F906F905F904F903F902F900895CE
:100D0000CF92DF92EF92FF920F931F938091340264
:100D100090913502882309F47BC0409130025091B4
:100D200031026091320270913302992309F44DC06F
:100D300000914E0210914F022091500230915102C9
:100D4000C0903602D0903702E0903802F09039021D
:100D500082E093E00E94BB1040913002509131023A
:100D6000609132027091330200915202109153024D
:100D70002091540230915502C0903A02D0903B022B
:100D8000E0903C02F0903D0282E493E00E94BB10B0
:100D900040913002509131026091320270913302E1
:100DA0000091560210915702209158023091590239
:100DB000C0903E02D0903F02E0904002F09041028D
:100DC00082E893E00E94BB108CC082E093E05BD786
:100DD00040913002509131026091320270913302A1
:100DE00082E493E050D740913002509131026091FB
:100DF00032027091330200915602109157022091F5
:100E000058023091590282E893E00E94C51269C0ED
:100E10004091300250913102609132027091330260
:100E2000992309F445C000914E0210914F02209180
:100E3000500230915102C0903602D0903702E090BB
:100E40003802F090390282E093E00E94BB1040919A
:100E50003002509131026091320270913302009160
:100E60005202109153022091540230915502C090C9
:100E70003A02D0903B02E0903C02F0903D0282E4C6
:100E800093E00E94BB10409130025091310260917A
:100E900032027091330200913E0210913F02209184
:100EA00040023091410282E893E00E94C51119C0CE
:100EB00082E093E0E8D64091300250913102609197
:100EC00032027091330282E493E0DDD64091300229
:100ED00050913102609132027091330282E893E0C6
:100EE000D2D682E093E0FAD460935A0270935B0208
:100EF00080935C0290935D0282E493E0EFD4609370
:100F00005E0270935F02809360029093610282E8B8
:100F100093E0E4D46093620270936302809364026E
:100F20009093650282E093E0DFD460936602709351
:100F30006702809368029093690282E493E0D4D4BC
:100F400060936A0270936B0280936C0290936D02BF
:100F500082E893E0C9D460936E0270936F0280932D
:100F60007002909371021F910F91FF90EF90DF90AC
:100F7000CF9008950F931F9380E094E00E94DA17BA
:100F8000882309F441C080E094E00E9486188823F9
:100F9000D9F140915A0250915B0260915C027091CC
:100FA0005D02DB01CA01895E984AA94EBF4F8F528C
:100FB0009E4AAC42B04040F500915E0210915F0243
:100FC0002091600230916102083187E5180786E1BF
:100FD000280780E03807C4F4093E88EA180789EE3C
:100FE00028078FEF380784F080E094E00E942919E9
:100FF000609356027093570280935802909359025F
:1010000081E08093340202C01092340282EC93E0BB
:101010000E948413882309F468C082EC93E00E9444
:101020008B1682EC93E00E946613609336027093F5
:101030003702809338029093390282EC93E00E9449
:101040006C1360933A0270933B0280933C0290933E
:101050003D0282EC93E00E94721360933E02709313
:101060003F02809340029093410282EC93E00E9401
:10107000541360934202709343028093440290930E
:10108000450282EC93E00E945A13609346027093EB
:101090004702809348029093490282EC93E00E94B9
:1010A000601360934A0270934B0280934C029093BA
:1010B0004D0282EC93E00E94781360934E0270938D
:1010C0004F02809350029093510282EC93E00E9471
:1010D0007E13609352027093530280935402909354
:1010E000550281E08093350202C0109235021F91B3
:1010F0000F9108952F923F924F925F926F927F923D
:101100008F929F92AF92BF92CF92DF92EF92FF9217
:101110000F931F93DF93CF93CDB7DEB7A8970FB68A
:10112000F894DEBF0FBECDBF19821A821B821C82CB
:101130001D821E821F82188619861A861B861C86AF
:101140001D861E861F86188A198A1A8A1B8A1C8A7F
:101150001D8A1E8A1F8A188E80E795E040E056E9B6
:1011600060E070E00E94281F82EC93E064E670E08B
:1011700040E022E001E00E94A016882329F080E7E9
:1011800095E060E071E004C080E795E064E271E022
:101190000E94162180E094E063E046E020E001E058
:1011A0000E94321A882351F180E795E065E471E0EE
:1011B0000E94162119A21AA21BA21CA21DA21EA2E5
:1011C0001FA218A61D8E1E8E1F8E18A2198E1A8E93
:1011D0001B8E1C8E442455243201882499245401EA
:1011E000EE24FF24870125E1222E312C2C0E3D1EFA
:1011F00099E0C92ED12CCC0EDD1E05C080E795E00C
:1012000069E671E0D5CF0E94F92120912C0230913E
:101210002D0240912E0250912F02621B730B840B02
:10122000950B605177428040904068F30E94F9210D
:1012300020912C0230912D0240912E0250912F02CC
:10124000621B730B840B950B609330027093310219
:1012500080933202909333020E94F92160932C0212
:1012600070932D0280932E0290932F020894E11C1C
:10127000F11C011D111D7EDE80913402882361F076
:101280004091560250915702609158027091590254
:1012900082E992E09601BCDC80913502882309F452
:1012A0007FC040914E0250914F0260915002709168
:1012B000510282E792E09E012F5F3F4FA9DC4091EF
:1012C000520250915302609154027091550282E88B
:1012D00092E09E012B5F3F4F9BDC40914202509178
:1012E0004302609144027091450282ED92E020E059
:1012F00030E08EDC6DA37EA38FA398A740914602B9
:1013000050914702609148027091490282EE92E04A
:1013100020E030E07DDC69A37AA38BA39CA34091FD
:101320004A0250914B0260914C0270914D0282EF43
:1013300092E020E030E06CDC6D8F7E8F8F8F98A381
:101340004091360250913702609138027091390213
:1013500082EA92E09E01235F3F4F5ADC698F7A8FC9
:101360008B8F9C8F40913A0250913B0260913C02DE
:1013700070913D0282EB92E09E012F5E3F4F48DC70
:101380002B013C0140913E0250913F02609140028E
:101390007091410282EC92E091013ADC4B015C01D8
:1013A00088EEE81683E0F80680E0080780E018077A
:1013B0000CF429CF498D5A8D6B8D7C8D709560957D
:1013C000509541955F4F6F4F7F4F00271127980130
:1013D0000419150926093709CC24DD247601C8181B
:1013E000D908EA08FB0882EC93E00E9420134DA183
:1013F0005EA16FA178A570956095509541955F4F5E
:101400006F4F7F4F09A11AA12BA13CA130952095C8
:10141000109501951F4F2F4F3F4F83E6C82E8FE742
:10142000D82E81E3E82E86EFF82E8D8D9E8DAF8D20
:10143000B8A1C81AD90AEA0AFB0A82EC93E00E9412
:101440003A1380E094E040E050E060E070E000E0BB
:1014500010E020E030E0CC24DD2476010E94C617A5
:1014600080E094E040E050E060E070E00E94D4173B
:101470008D849E84AF84B888ADB7BEB750970FB641
:10148000F894BEBF0FBEADBFEDB7FEB73196940165
:101490001127002711961D921D921D921C921497E0
:1014A000148215821682178289819A81AB81BC8150
:1014B00080879187A287B38784869586A686B7861C
:1014C00082E093E040E050E060E870E0C12CD12C75
:1014D000E0E2EE2EF12C86D189889A88AB88BC8810
:1014E000EDB7FEB73196940111270027ADB7BEB70F
:1014F00011961D921D921D921C92149714821582B2
:10150000168217828D819E81AF81B88580879187F1
:10151000A287B38784869586A686B78682E493E001
:1015200040E050E060E870E05DD18D889E88AF8833
:10153000B88CEDB7FEB73196940111270027ADB7EF
:10154000BEB711961D921D921D921C921497148283
:1015500015821682178289859A85AB85BC8580871E
:101560009187A287B38784869586A686B78682E808
:1015700093E040E050E060E870E034D18DB79EB772
:1015800040960FB6F8949EBF0FBE8DBF80E795E0E2
:101590006AE871E00E94162180E795E062EA71E056
:1015A0000E941621A8960FB6F894DEBF0FBECDBFDD
:1015B000CF91DF911F910F91FF90EF90DF90CF902F
:1015C000BF90AF909F908F907F906F905F904F9063
:1015D0003F902F900895CF92DF92EF92FF920F935A
:1015E0001F93DF93CF93CDB7DEB72E970FB6F89446
:1015F000DEBF0FBECDBF8CE0898386E08A83609119
:101600005A0270915B0280915C0290915D0203E14D
:1016100095958795779567950A95D1F723EB30E0F7
:1016200040E050E00E9446236B837C8360915E0221
:1016300070915F02809160029091610213E1959533
:101640008795779567951A95D1F70E9446236D8304
:101650007E83609162027091630280916402909136
:101660006502B3E19595879577956795BA95D1F71A
:101670000E9446236F8378876091660270916702AB
:101680008091680290916902A4E19595879577957C
:101690006795AA95D1F70E94462369877A8760915A
:1016A0006A0270916B0280916C0290916D02F4E17C
:1016B0009595879577956795FA95D1F70E9446237A
:1016C0006B877C8760916E0270916F0280917002CF
:1016D00090917102E4E19595879577956795EA95E4
:1016E000D1F70E9446236D877E877E010894E11C16
:1016F000F11C8701DD24CC249E01215F3F4FF801BE
:1017000081918F01D80ECD0CE217F307C1F780E766
:1017100095E063EA71E00E94142180E795E0F7010B
:1017200061917F010E941820E016F106B1F780E771
:1017300095E06D2D0E94182080E795E06C2D0E94A9
:1017400018202E960FB6F894DEBF0FBECDBFCF91F6
:10175000DF911F910F91FF90EF90DF90CF90089550
:10176000FC0114821582168217821486158616864D
:1017700017861082118212821382108611861286B9
:10178000138610AA11AA12AA13AA10AE11AE12AE95
:1017900013AE14AA15AA16AA17AA14AE15AE16AE41
:1017A00017AE108A118A128A138A148A158A168A29
:1017B000178A108E118E128E138E148E158E168E21
:1017C000178E10A211A212A213A214A215A216A281
:1017D00017A210A611A612A613A614A615A616A641
:1017E00017A608954F925F926F927F928F929F9269
:1017F000AF92BF92CF92DF92EF92FF920F931F931F
:10180000DF93CF93CDB7DEB7FC0140835183628372
:1018100073838B899C89AD89BE894F88588C698C6C
:101820007A8C048315832683378384869586A686DF
:10183000B786C086D186E286F38680AB91ABA2AB39
:10184000B3AB80AF91AFA2AFB3AF44AA55AA66AA1B
:1018500077AA44AE55AE66AE77AE2B8D3C8D4D8DDE
:101860005E8D208B318B428B538B148A158A168A9E
:10187000178A108E118E128E138E4F8D58A169A16A
:101880007AA1448F558F668F778F6B8D7C8D8D8D70
:101890009E8D60A371A382A393A314A215A216A286
:1018A00017A210A611A612A613A68F8D98A1A9A102
:1018B000BAA184A795A7A6A7B7A7CF91DF911F913B
:1018C0000F91FF90EF90DF90CF90BF90AF909F90DF
:1018D0008F907F906F905F904F900895FC0160AD66
:1018E00071AD82AD93AD0895FC0164AD75AD86AD6B
:1018F00097AD0895FC0120A931A942A953A920AFB1
:1019000031AF42AF53AF84A995A9A6A9B7A984AFB7
:1019100095AFA6AFB7AF2B368FE3380784E2480701
:1019200083E058072CF0255D3E47484456400CC0E4
:10193000263980EC38078BED48078CEF580744F4C4
:101940002B523148474B594F20AF31AF42AF53AFC5
:1019500080899189A289B38980A391A3A2A3B3A30B
:1019600084899589A689B78984A395A3A6A3B7A3DB
:10197000808D918DA28DB38D80A791A7A2A7B3A7CB
:10198000848D958DA68DB78D84A795A7A6A7B7A79B
:10199000089582E093E0E4DE82E493E0E1DE82E811
:1019A00093E0DECE2F923F924F925F926F927F92A2
:1019B0008F929F92AF92BF92CF92DF92EF92FF925F
:1019C0000F931F93DF93CF9300D000D000D0CDB7FB
:1019D000DEB79E838D8378018901141615061606DD
:1019E00017062CF020E130E040E050E01AC0493307
:1019F00032E453073FE0630730E0730724F048E325
:101A000052E46FE070E0CB01BA0127EC30E140E036
:101A100050E00E944623272F382F492F552747FD96
:101A20005A9529833A834B835C83E114F1040105C1
:101A3000110519F5AD81BE81D896ED90FD900D91FF
:101A40001C91DB97DC966D917D918D919C91DF9738
:101A500029813A814B815C810E949000E60EF71E3D
:101A6000081F191FED81FE81E0AAF1AA02AB13AB9A
:101A700084AD95ADA6ADB7AD3EC0C801B701298113
:101A80003A814B815C810E9490003B014C01AD8109
:101A9000BE81D896AD90BD90CD90DC90DB97DC9662
:101AA0006D917D918D919C91DF9729813A814B8138
:101AB0005C810E9490007B018C01C401B3012981EB
:101AC0003A814B815C810E949000E60EF71E081F50
:101AD000191FAE0CBF1CC01ED11EED81FE81A0AA35
:101AE000B1AAC2AAD3AA84AD95ADA6ADB7AD860DF5
:101AF000971DA81DB91D84AB95ABA6ABB7ABED8107
:101B0000FE8180A991A9A2A9B3A98B36FFE39F0703
:101B1000F4E2AF07F3E0BF072CF0855D9E47A844D1
:101B2000B6400CC08639F0EC9F07FBEDAF07FCEF29
:101B3000BF0754F48B529148A74BB94FED81FE81FA
:101B400080AB91ABA2ABB3ABAD81BE819C966D91E6
:101B50007D918D919C919F9729813A814B815C81E8
:101B60000E9490005B016C01ED81FE81E0A0F1A07C
:101B700002A113A164A175A186A197A129813A812F
:101B80004B815C810E9490001B012C01AD81BE81C4
:101B900098966D917D918D919C919B9729813A8129
:101BA0004B815C810E9490003B014C0169817A81EC
:101BB0008B819C81A60195010E949000ED81FE81A0
:101BC0002081318142815381E20EF31E041F151FD3
:101BD000E20CF31C041D151DE60CF71C081D191D55
:101BE000E60EF71E081F191FE08AF18A028B138B7D
:101BF00084A195A1A6A1B7A18A0D9B1DAC1DBD1DF9
:101C0000848B958BA68BB78B80A591A5A2A5B3A538
:101C10008A0D9B1DAC1DBD1D808F918FA28FB38F30
:101C200084819581A681B78124A535A546A557A5B0
:101C3000820F931FA41FB51F848F958FA68FB78F18
:101C400026960FB6F894DEBF0FBECDBFCF91DF91C1
:101C50001F910F91FF90EF90DF90CF90BF90AF90CA
:101C60009F908F907F906F905F904F903F902F90BC
:101C700008950F931F9300E010E020E030E092DE23
:101C80001F910F9108950F931F938C01F2DFC801EC
:101C900031DE1F910F9108952F923F924F925F92E4
:101CA0006F927F928F929F92AF92BF92CF92DF926C
:101CB000EF92FF920F931F93DF93CF93CDB7DEB7D1
:101CC000A2970FB6F894DEBF0FBECDBF9AA389A32B
:101CD0001A012B01FC0180A991A9A2A9B3A9281A74
:101CE000390A4A0A5B0A84A995A9A6A9B7A9A90134
:101CF0009801281B390B4A0B5B0B2D8F3E8F4F8FA2
:101D000058A36085718582859385208931894289B0
:101D10005389620F731F841F951F2485358546855F
:101D20005785E48CF58C068D178D2E0D3F1D401FB9
:101D3000511F0E9490007B018C01A9A1BAA1549669
:101D40006D917D918D919C91579758962D913D91D4
:101D50004D915C915B970E949000E61AF70A080B80
:101D6000190B60E070E080E091E0A80197010E940B
:101D700055013B014C01E9A1FAA160897189828971
:101D80009389248D358D468D578D0E9490005B017F
:101D90006C01A9A1BAA154966D917D918D919C91F0
:101DA000579758962D913D914D915C915B970E946C
:101DB00090007B018C01E9A1FAA160897189828977
:101DC000938924853585468557850E9490009B011F
:101DD000AC012A0D3B1D4C1D5D1D2E193F09400B0A
:101DE000510BC401B3010E949000698F7A8F8B8FD1
:101DF0009C8F69837A838B839C83A9A1BAA1549613
:101E00006D917D918D919C91579718962D913D9153
:101E10004D915C911B970E9490009B01AC01C40105
:101E2000B3010E9490006D8B7E8B8F8B988F6D839A
:101E30007E838F839887E9A1FAA1608D718D828D51
:101E4000938D24853585468557850E9490009B019A
:101E5000AC01C401B3010E949000698B7A8B8B8B1B
:101E60009C8B69877A878B879C87A9A1BAA150969A
:101E70006D917D918D919C9153975C962D913D91A3
:101E80004D915C915F970E9490005B016C01E9A10C
:101E9000FAA16489758986899789208D318D428D53
:101EA000538D0E9490007B018C01A9A1BAA15C9680
:101EB0006D917D918D919C915F9718962D913D919B
:101EC0004D915C911B970E9490009B01AC012A0DE3
:101ED0003B1D4C1D5D1D2E193F09400B510BC401CC
:101EE000B3010E9490003B014C016D877E878F8774
:101EF000988BE9A1FAA1A0A8B1A8C2A8D3A8698D1E
:101F00007A8D8B8D9C8DA20191010E9490007B01A6
:101F10008C016D897E898F89988D2D8D3E8D4F8D99
:101F200058A10E949000E60EF71E081F191FAE0C64
:101F3000BF1CC01ED11EA9A1BAA1D896AD92BD9258
:101F4000CD92DC92DB97D496AD90BD90CD90DC9095
:101F5000D797C401B301A20191010E9490007B01B7
:101F60008C0169897A898B899C892D8D3E8D4F8D55
:101F700058A10E949000E60EF71E081F191FAE0C14
:101F8000BF1CC01ED11EE9A1FAA1A4AEB5AEC6AE5B
:101F9000D7AE80AD91ADA2ADB3AD8B36FFE39F0759
:101FA000F4E2AF07F3E0BF072CF0855D9E47A8443D
:101FB000B6400CC08639F0EC9F07FBEDAF07FCEF95
:101FC000BF0754F48B529148A74BB94FE9A1FAA12E
:101FD00080AF91AFA2AFB3AFA9A1BAA15096ED90D7
:101FE000FD900D911C915397C801B701298D3A8D31
:101FF0004B8D5C8D0E9490005B016C01E9A1FAA100
:10200000608D718D828D938D2D893E894F89588D7C
:102010000E949000EA18FB080C091D09E61AF70A4D
:10202000080B190BA9A1BAA19096ED92FD920D9300
:102030001C9393975496ED90FD900D911C9157979A
:10204000C801B701298D3A8D4B8D5C8D0E9490009F
:102050005B016C01E9A1FAA1648D758D868D978D68
:102060002D893E894F89588D0E949000EA18FB08FF
:102070000C091D09E61AF70A080B190BA9A1BAA148
:102080009496ED92FD920D931C9397975896ED9030
:10209000FD900D911C915B9750966D917D918D9166
:1020A0009C91539729893A894B895C890E949000B9
:1020B0005B016C01E9A1FAA1608D718D828D938D18
:1020C000A40193010E949000EA18FB080C091D0965
:1020D000E61AF70A080B190BA9A1BAA19896ED9276
:1020E000FD920D931C939B975C96ED90FD900D9146
:1020F0001C915F9754966D917D918D919C9157970E
:1021000029893A894B895C890E9490005B016C01A6
:10211000E9A1FAA1648D758D868D978DA401930137
:102120000E949000EA18FB080C091D09E61AF70A3C
:10213000080B190BA9A1BAA19C96ED92FD920D93E3
:102140001C939F97A2960FB6F894DEBF0FBECDBF2B
:10215000CF91DF911F910F91FF90EF90DF90CF9083
:10216000BF90AF909F908F907F906F905F904F90B7
:102170003F902F9008956F927F928F929F92AF928F
:10218000BF92CF92DF92EF92FF920F931F933C0189
:10219000480159016EDDC301B501A4019701860113
:1021A0007BDD1F910F91FF90EF90DF90CF90BF905C
:1021B000AF909F908F907F906F9008952F923F9255
:1021C0004F925F926F927F928F929F92AF92BF9247
:1021D000CF92DF92EF92FF920F931F93CF93DF93F3
:1021E000EC015A016B018CA99DA9AEA9BFA9A81A3F
:1021F000B90ACA0ADB0A2C853D854E855F858C8D20
:102200009D8DAE8DBF8D280F391F4A1F5B1F60E06B
:1022100070E080E091E00E9455017B018C012C89E7
:102220003D894E895F890E9490003B014C012C8DB5
:102230003D8D4E8D5F8DC801B7010E9490001B013E
:102240002C01E8A8F9A80AA91BA9C401B301A60199
:1022500095010E949000E60EF71E081F191FE8AEB8
:10226000F9AE0AAF1BAFECA8FDA80EA91FA9C201C9
:10227000B101A60195010E949000E60EF71E081F0D
:10228000191FECAEFDAE0EAF1FAF88AD99ADAAAD74
:10229000BBAD8B362FE3920724E2A20723E0B207FF
:1022A0002CF0855D9E47A844B6400CC0863920ECD2
:1022B00092072BEDA2072CEFB20744F48B52914802
:1022C000A74BB94F88AF99AFAAAFBBAFE888F988E1
:1022D0000A891B89688D798D8A8D9B8DA401930154
:1022E0000E949000E61AF70A080B190BE8A2F9A25F
:1022F0000AA31BA3EC88FD880E891F896C8D7D8D38
:102300008E8D9F8DA40193010E949000E61AF70A1A
:10231000080B190BECA2FDA20EA31FA3E88CF98CED
:102320000A8D1B8DC801B701A20191010E94900086
:10233000E61AF70A080B190BE8A6F9A60AA71BA7C5
:10234000EC8CFD8C0E8D1F8DC801B701A20191018F
:102350000E949000E61AF70A080B190BECA6FDA6DE
:102360000EA71FA7DF91CF911F910F91FF90EF90C4
:10237000DF90CF90BF90AF909F908F907F906F90A5
:102380005F904F903F902F900895AF92BF92CF9261
:10239000DF92EF92FF920F931F937C015801690126
:1023A00068DCC701B601A50109DF1F910F91FF90FD
:1023B000EF90DF90CF90BF90AF9008952F923F9213
:1023C0004F925F926F927F928F929F92AF92BF9245
:1023D000CF92DF92EF92FF920F931F93CF93DF93F1
:1023E000EC015A016B0188A999A9AAA9BBA9A81A4D
:1023F000B90ACA0ADB0A288539854A855B85888936
:102400009989AA89BB89280F391F4A1F5B1F60E081
:1024100070E080E091E00E9455017B018C012889E9
:1024200039894A895B890E9490003B014C01288DC3
:10243000398D4A8D5B8DC801B7010E9490001B0148
:102440002C01E8A8F9A80AA91BA9C401B301A60197
:1024500095010E949000E60EF71E081F191FE8AEB6
:10246000F9AE0AAF1BAFECA8FDA80EA91FA9C201C7
:10247000B101A60195010E949000E60EF71E081F0B
:10248000191FECAEFDAE0EAF1FAF88AD99ADAAAD72
:10249000BBAD8B362FE3920724E2A20723E0B207FD
:1024A0002CF0855D9E47A844B6400CC0863920ECD0
:1024B00092072BEDA2072CEFB20744F48B52914800
:1024C000A74BB94F88AF99AFAAAFBBAFE888F988DF
:1024D0000A891B89C801B701A40193010E949000D9
:1024E000E61AF70A080B190BE8A2F9A20AA31BA324
:1024F000EC88FD880E891F89C801B701A4019301EA
:102500000E949000E61AF70A080B190BECA2FDA234
:102510000EA31FA3E88CF98C0A8D1B8D688979891D
:102520008A899B89A20191010E949000E61AF70A0C
:10253000080B190BE8A6F9A60AA71BA7EC8CFD8CC3
:102540000E8D1F8D6C897D898E899F89A2019101D5
:102550000E949000E61AF70A080B190BECA6FDA6DC
:102560000EA71FA7DF91CF911F910F91FF90EF90C2
:10257000DF90CF90BF90AF909F908F907F906F90A3
:102580005F904F903F902F900895AF92BF92CF925F
:10259000DF92EF92FF920F931F937C015801690124
:1025A00068DBC701B601A50109DF1F910F91FF90FC
:1025B000EF90DF90CF90BF90AF900895FC01108214
:1025C000118212821382148215821682178210865B
:1025D0001186128613861486158616861786108A2B
:1025E000118A128A138A148A158A168A178A108EFB
:1025F000118E128E138E148E158E168E178E10A2BB
:1026000011A212A213A214A215A216A217A210A61A
:1026100011A612A613A614A615A616A617A610AAEA
:1026200011AA12AA13AA14AA15AA16AA17AA11AEB9
:1026300010AE12AE13AE82E084AF81E085AF089594
:10264000CF92DF92EF92FF920F931F93FC0144A36E
:1026500055A366A377A300A711A722A733A7C4A6F3
:10266000D5A6E6A6F7A61F910F91FF90EF90DF90F9
:10267000CF900895CF92DF92EF92FF920F931F9326
:10268000FC014487558766877787008B118B228BE7
:10269000338BC48AD58AE68AF78A1F910F91FF90FF
:1026A000EF90DF90CF900895FC016081718182816D
:1026B00093810895FC0164817581868197810895D5
:1026C000FC0160857185828593850895FC01608D8C
:1026D000718D828D938D0895FC01648D758D868D2D
:1026E000978D0895FC0160A171A182A193A1089525
:1026F000FC0160A971A982A993A90895FC0164A9AC
:1027000075A986A997A90895FC0182AD08958091C5
:10271000FC038F5F8093FC03089582EC93E04ECF1F
:102720001F93162F106884E060E00E94F2221EBD05
:102730000DB407FEFDCF8EB51EBC0DB407FEFDCF58
:102740001EB584E061E00E94F222812F1F9108955E
:102750007F928F929F92AF92BF92CF92DF92EF9231
:10276000FF920F931F93CF93DF93EC0163E4D8DFC5
:10277000D82ECE0164E4D4DFFD2CEE2490E0E82ACC
:10278000F92A0027F7FC0095102F8CAD43E0842E2A
:10279000912C9401281B310930EDA32E35E4B32E82
:1027A000C12CD12CD601C50104C0B595A79597952C
:1027B00087952A95D2F79C01AD01C801B7010E9407
:1027C00046232CA13DA14EA15FA1260F371F481F14
:1027D000591F288F398F4A8F5B8FCE0165E4A0DFA8
:1027E000782ECE0166E49CDFF72CEE2490E0E82AF8
:1027F000F92A0027F7FC0095102F10950095F0940A
:10280000E094E11CF11C011D111D8CAD9401281BED
:102810003109D601C50104C0B595A795979587954F
:102820002A95D2F79C01AD01C801B7010E94462349
:1028300028A539A54AA55BA5260F371F481F591F94
:102840002C8F3D8F4E8F5F8FCE0167E469DF182F8D
:10285000CE0168E465DF312F20E090E0282B392B92
:10286000442737FD4095542F50954095309521953C
:102870003F4F4F4F5F4F8CAD881A910804C0D594DD
:10288000C794B794A7948A94D2F7CA01B901A60154
:1028900095010E9446232CA53DA54EA55FA5260FB8
:1028A000371F481F591F28A339A34AA35BA38AAD2A
:1028B000882319F08AAD81508AAFDF91CF911F91A3
:1028C0000F91FF90EF90DF90CF90BF90AF909F90CF
:1028D0008F907F9008950F931F93162F042F84E0FD
:1028E00060E00E94F2221EBD0DB407FEFDCF8EB542
:1028F0000EBD0DB407FEFDCF8EB584E061E00E94F1
:10290000F2221F910F910895EF92FF920F931F9360
:10291000CF93DF93EC01288539854A855B85EC8070
:10292000FD800E811F8157FD24C0CA01B901A80195
:1029300097010E94EE026659704C8B4D9C4F68AB1C
:1029400079AB8AAB9BAB688579858A859B85288125
:1029500039814A815B8150954095309521953F4F53
:102960004F4F5F4F0E94EE026659704C8B4D9C4F4B
:1029700025C066277727CB01621B730B840B950B51
:1029800022273327A9012E193F09400B510B0E9422
:10299000EE0268AB79AB8AAB9BAB688579858A859B
:1029A0009B8590958095709561957F4F8F4F9F4F38
:1029B000288139814A815B810E94EE026CAB7DAB3C
:1029C0008EAB9FAB88A999A9AAA9BBA98B362FE387
:1029D000920724E2A20723E0B2072CF0855D9E4710
:1029E000A844B6400CC0863920EC92072BEDA20714
:1029F0002CEFB20744F48B529148A74BB94F88ABE8
:102A000099ABAAABBBAB8CA99DA9AEA9BFA98B36CC
:102A10002FE3920724E2A20723E0B2072CF0855DA2
:102A20009E47A844B6400CC0863920EC92072BED97
:102A3000A2072CEFB20744F48B529148A74BB94F31
:102A40008CAB9DABAEABBFABDF91CF911F910F9124
:102A5000FF90EF9008951F93CF93DF93EC016BE30A
:102A60005FDE182FCE016CE35BDE282F30E04DAD2A
:102A7000433081F5912F80E0282B392B87E92639C7
:102A800038072CF426E737E241E050E816C088E624
:102A90002B3638072CF02AE838ED4EEF5FE70DC0F3
:102AA000B901882777FD8095982F21ED39E341E022
:102AB00050E00E9446239B01AC018C859D85AE852C
:102AC000BF85820F931FA41FB51F88839983AA8394
:102AD000BB8325C0712F60E0622B732B882777FDA5
:102AE0008095982FE3E0F0E0E41BF10921ED39E354
:102AF00041E050E004C05595479537952795EA95F4
:102B0000D2F70E9446232C853D854E855F85260F92
:102B1000371F481F591F288339834A835B83CE019F
:102B20006DE3FEDD182FCE016EE3FADD282F30E0D5
:102B30004DAD433009F03FC0912F80E0822B932BA5
:102B4000AA2797FDA095BA2F22273327A901281B72
:102B5000390B4A0B5B0B263987E938078FEF48079B
:102B60008FEF58072CF426E737E241E050E816C013
:102B7000CA01B9016B3628E6720720E0820720E01F
:102B8000920724F06AE678E680E090E021ED39E3F0
:102B900041E050E00E9446239B01AC01888999895D
:102BA000AA89BB89820F931FA41FB51F8C839D83A5
:102BB000AE83BF832CC0712F60E0622B732B8827FC
:102BC00077FD8095982F90958095709561957F4FB2
:102BD0008F4F9F4FE3E0F0E0E41BF10921ED39E373
:102BE00041E050E004C05595479537952795EA9503
:102BF000D2F70E944623288939894A895B89260FA2
:102C0000371F481F591F2C833D834E835F83CE019E
:102C10006FE386DD182FCE0160E482DD282F30E0DF
:102C20004DAD433009F03FC0912F80E0822B932BB4
:102C3000AA2797FDA095BA2F22273327A901281B81
:102C4000390B4A0B5B0B263987E938078FEF4807AA
:102C50008FEF58072CF426E737E241E050E816C022
:102C6000CA01B9016B3628E6720720E0820720E02E
:102C7000920724F06AE678E680E090E021ED39E3FF
:102C800041E050E00E9446239B01AC018C899D8964
:102C9000AE89BF89820F931FA41FB51F88879987AC
:102CA000AA87BB872CC0712F60E0622B732B88270B
:102CB00077FD8095982F90958095709561957F4FC1
:102CC0008F4F9F4FE3E0F0E0E41BF10921ED39E382
:102CD00041E050E004C05595479537952795EA9512
:102CE000D2F70E9446232C893D894E895F89260FA1
:102CF000371F481F591F288739874A875B87CE01AE
:102D000003DE8AAD882319F08AAD81508AAFDF9146
:102D1000CF911F910895CF93DF93EC019CDE8AAD94
:102D20008F5F8AAFCE0114DD8AAD8F5F8AAF8AAD27
:102D3000882319F08AAD81508AAFDF91CF91089531
:102D4000CF92DF92EF92FF920F931F93CF93DF9377
:102D5000EC017B01142FD22EC02E2CAF0DAF84E0DE
:102D600061E00E94B32284E061E00E94F222D5D7A4
:102D700081E0C2D76AE070E080E090E00E941F220C
:102D8000CE016BE640E8A7DD64E670E080E090E00D
:102D90000E941F22CE016BE643E09DDD61E070E002
:102DA00080E090E00E941F22CE016AE640E193DDC0
:102DB00061E070E080E090E00E941F22CE0165E7B4
:102DC000AFDC8E778BAF1330E9F0143028F411307C
:102DD00089F0123098F407C01530E1F01530B0F0EA
:102DE000163089F51BC0CE016AE140E074DD80E455
:102DF0009FE11AC0CE016AE141E013C0CE016AE151
:102E000042E00FC0CE016AE143E00BC0CE016AE1AF
:102E100044E007C0CE016AE145E003C0CE016AE1AB
:102E200046E059DD88EE93E0B7010E946523611505
:102E3000710509F16F3F710519F010F06FEF70E047
:102E4000162F115019C0CE016AE140E044DD80E444
:102E50009FE1B7010E9465236115710511F410E02F
:102E600008C06F3F710519F010F06FEF70E0162F7A
:102E7000115000E002C010E001E061E070E080E08D
:102E800090E00E941F22CE0169E1412F24DD61E024
:102E900070E080E090E00E941F2281E0D81669F087
:102EA000D81638F082E0D81669F083E0D81691F48D
:102EB0000DC0CE016BE140E003C0CE016BE148E004
:102EC0000ADD0FC0CE016BE140E1FACFCE016BE12C
:102ED00048E1F6CFCE016BE140E1FDDC82E08CAF52
:102EE00000E061E070E080E090E00E941F2281E05D
:102EF000C81669F0C81638F082E0C81669F083E099
:102F0000C81691F40DC0CE016CE140E003C0CE01C3
:102F10006CE148E0E0DC0FC0CE016CE140E1FACFAB
:102F2000CE016CE148E1F6CFCE016CE148E0D3DCA4
:102F300081E08DAF00E061E070E080E090E00E9411
:102F40001F22CE0168E341E0C6DC61E070E080E072
:102F500090E00E941F22CE0167E340E1BCDC61E00B
:102F600070E080E090E00E941F2280E067E873E15B
:102F700043E050E00E942721802FDF91CF911F91E5
:102F80000F91FF90EF90DF90CF900895CF92DF9256
:102F9000EF92FF92FC01C786D08AE18AF28AFF9005
:102FA000EF90DF90CF900895FC0143A354A365A355
:102FB00076A30895FC0187A10895809127048F5F6F
:102FC0008093270408951092000410920104109237
:102FD000020410920F041092100410921104109227
:102FE00012041092130410921404109215041092FB
:102FF00016041092170410921804109219041092DB
:103000001A04109203041092040410920504109202
:1030100006041092070410920804109209041092FA
:103020000A0410920B0410920C0410920D041092DA
:103030000E0410922304109224041092250410927E
:10304000260410921F041092200410922104109262
:1030500022048FE19CE3A0E0B0E080931B049093F6
:103060001C04A0931D04B0931E041092270408951D
:10307000EF92FF920F931F93162F042F8EE6E82EE8
:1030800084E0F82EC7016EE170E0F5D2C701612F30
:1030900073D3C701602F70D3C701AFD31F910F91B6
:1030A000FF90EF9008950F931F93CF93DF93162F08
:1030B000042FE9018EE694E06EE170E0DCD28EE64A
:1030C00094E0612F59D38EE694E097D38EE694E096
:1030D0006EE1402FA0D310E008C08EE694E0DED26F
:1030E000FE01E10FF11D80831F5F8EE694E0CDD2DB
:1030F000892B99F78EE694E080D380E0101709F4CD
:1031000081E0DF91CF911F910F910895FF920F936E
:103110001F93DF93CF9300D000D000D0CDB7DEB7A0
:103120008C0163E046E09E012F5F3F4FBCDF8823A8
:1031300009F47AC0998180E02A8130E0822B932BB8
:1031400022273327281B390BC9018050984F805004
:10315000904110F0FF241BC0B901882777FD8095AE
:10316000982FF801238D348D458D568D0E9446236E
:10317000F8012785308941895289260F371F481F5A
:10318000591F2383348345835683FF24F3949D8101
:1031900080E02E8130E0282B392BC9018050984FD8
:1031A0008050904110F0FF2419C0B901882777FDA5
:1031B0008095982FF801238D348D458D568D0E9472
:1031C0004623F8012389348945895689260F371FFC
:1031D000481F591F27833087418752879B8180E092
:1031E0002C8130E0282B392BC9018050984F80501A
:1031F0009041D0F4B901882777FD8095982FF80188
:10320000238D348D458D568D0E944623F8012789E4
:10321000308D418D528D260F371F481F591F238730
:1032200034874587568701C0FF24F80187A188238A
:1032300019F087A1815087A38F2D26960FB6F89499
:10324000DEBF0FBECDBFCF91DF911F910F91FF90D9
:1032500008952F923F924F925F926F927F928F923A
:103260009F92AF92BF92CF92DF92EF92FF920F9315
:103270001F93DF93CF93CDB7DEB72E970FB6F89499
:10328000DEBF0FBECDBF9E878D8778018901CB0140
:10329000BA01AE014F5F5F4F0E94D80169877A87FC
:1032A0008B879C87C801B701AE014B5F5F4F0E94BF
:1032B000D8011B012C01ED85FE85278130854185D4
:1032C000528569857A858B859C850E9490003B019B
:1032D0004C0169817A818B819C81ED85FE852385F6
:1032E0003485458556850E9490005B016C01ED8513
:1032F000FE8563817481858196812D813E814F8118
:1033000058850E9490007B018C01C401B301A20189
:1033100091010E9490003B014C01C601B501A20140
:1033200091010E9490006E0C7F1C801E911E660E03
:10333000771E881E991EED85FE85678170858185C3
:10334000928529813A814B815C810E9490007B01AA
:103350008C01ED85FE856385748585859685298537
:103360003A854B855C850E949000E61AF70A080BA7
:10337000190B97FC16C022273327A9012E193F09E4
:10338000400B510BC401B3010E94EE02ED85FE8596
:1033900023A134A145A156A1621B730B840B950B8D
:1033A00019C066277727CB0166197709880999091B
:1033B000A80197010E94EE02ED85FE8523A134A1AC
:1033C00045A156A1621B730B840B950B6659704C7B
:1033D0008B4D9C4F678F70A381A392A3ED85FE85D3
:1033E000878D90A1A1A1B2A18639F0EC9F07FBEDDA
:1033F000AF07FCEFBF072CF48B529148A74BB94F96
:103400000CC08B36FFE39F07F4E2AF07F3E0BF0782
:1034100054F0855D9E47A844B640ED85FE85878FB4
:1034200090A3A1A3B2A3ED85FE85678D70A181A1B4
:1034300092A12E960FB6F894DEBF0FBECDBFCF91EE
:10344000DF911F910F91FF90EF90DF90CF90BF9091
:10345000AF909F908F907F906F905F904F903F9034
:103460002F900895DF92EF92FF920F931F93CF93C7
:10347000DF93EC01F62E142FD22E8EE694E0CDD100
:103480006AE070E080E090E0DAD7CE016AE043E0E5
:103490009E0109DE682F90E08881883409F091E070
:1034A00020E08981843309F021E0922B292F30E03C
:1034B00040E050E08A81833311F041E050E0242B5A
:1034C000352B232B11F0EE2404C0862F611181E0EF
:1034D000E82E81E0F81649F0F81648F082E0F81678
:1034E00041F083E0F81639F407C040E206C040E03E
:1034F00004C040E402C0EE2440E6133099F01430DA
:1035000028F4113059F0123058F413C0153071F00E
:10351000153050F04861163059F40BC0446009C0B2
:10352000486007C04C6005C0406103C0446101C0F1
:10353000EE2481E0D81639F0D81640F082E0D81693
:1035400021F0EE2403C0416001C04260CE0160E082
:103550008FDD62E370E080E090E071D7033079F1B5
:10356000043028F40130C1F00230F8F40BC005300B
:10357000D1F1053070F1063009F43FC0073009F091
:1035800050C045C086ED9FE2A0E0B0E08B8F9C8FDD
:10359000AD8FBE8F40E04FC08FE19CE3A0E0B0E074
:1035A0008B8F9C8FAD8FBE8F45C08CEE9FE4A0E0CB
:1035B000B0E08B8F9C8FAD8FBE8F40E43CC08CE41D
:1035C00093E6A0E0B0E08B8F9C8FAD8FBE8F40E67E
:1035D00032C082EF94E9A0E0B0E08B8F9C8FAD8F7A
:1035E000BE8F40E828C08AE098EAA0E0B0E08B8F68
:1035F0009C8FAD8FBE8F40EA1EC088E996ECA0E09C
:10360000B0E08B8F9C8FAD8FBE8F40EC14C080EFED
:103610009CE1A1E0B0E08B8F9C8FAD8FBE8F40EE20
:103620000AC08FE19CE3A0E0B0E08B8F9C8FAD8F50
:10363000BE8FEE2440E2CE0161E01ADD62E370E06D
:1036400080E090E0FCD6CE0162E040E011DD62E374
:1036500070E080E090E0F3D681E06DED77E143E04B
:1036600050E0F5D58E2DDF91CF911F910F91FF90F6
:10367000EF90DF90089581E080936D0460934A0499
:1036800010926B0410926C0408952091490430E06C
:1036900080914804281B3109C901089540914804CC
:1036A00080914904481718F02FEF3FEF0AC0E42F2C
:1036B000F0E0E85DFB4F8081282F30E04F5F4093C2
:1036C0004804C9010895E091480480914904E8172D
:1036D00018F0EFEFFFEF06C0F0E0E85DFB4F8081F0
:1036E000E82FF0E0CF010895089510927104109230
:1036F000700488EE93E0A0E0B0E0809372049093B1
:103700007304A0937404B093750480E192E09093E5
:103710006F0480936E040895CF92DF92EF92FF9230
:103720000F931F93CF93DF937C016B018A018091EC
:103730006D048823A1F0C0E0D0E00DC0D701ED9169
:10374000FC91D601AC0FBD1F0190F081E02DC701A7
:103750006C9109952196C017D10780F303C0CB0166
:10376000642F02D1C801DF91CF911F910F91FF907B
:10377000EF90DF90CF900895DF93CF930F92CDB766
:10378000DEB7FC01698380916D048823C9F08091C4
:103790006C04803238F081E090E09383828320E0F3
:1037A00030E014C080916B04E82FF0E0E55BFB4F44
:1037B000998190838F5F80936B0480936C0404C025
:1037C000CE01019661E0D0D021E030E0C9010F9038
:1037D000CF91DF9108950F93062F80914A046BE4F7
:1037E00074E040916C0421E06AD010926B04109256
:1037F0006C0410926D040F91089561E0ECCF41329A
:1038000008F040E2862F68E274E010D0109248047D
:1038100080934904089521E0F2CF10924804109259
:10382000490410926B0410926C044AC2382F413242
:1038300010F040E042C080917A048823E1F791E0E3
:1038400090937A0420937C048FEF8093E704109286
:10385000A20441504093A3044F5F90937B04809156
:103860007B04330F832B80937B0480917D04813014
:1038700041F410927D0480917B048093BB0085EC21
:1038800001C085EE8093BC0080917A048130E1F321
:103890008091A204841710F44091A20420E030E04B
:1038A0000AC0FB01E20FF31FD901AE57BB4F8C9149
:1038B00080832F5F3F4F2417A0F3842F08950F9329
:1038C0001F93582F122F413210F081E04AC080918F
:1038D0007A048823E1F782E080937A0400937C04E1
:1038E0008FEF8093E7041092A2044093A304A2E810
:1038F000B4E0FB0102C081918D938E2F861B84174B
:10390000D0F310927B0480917B04550F852B80931C
:103910007B0480917D04813041F410927D0480917C
:103920007B048093BB0085EC01C085EE8093BC00D6
:10393000112321F080917A048230E1F38091E70431
:103940008F3F11F480E00DC08091E704803211F4C4
:1039500082E007C08091E704803311F084E001C069
:1039600083E01F910F910895482F613210F081E09C
:10397000089580917A04843011F082E00895609374
:10398000C504A4EAB4E0842F9C01F90102C081912E
:103990008D938E2F841B8617D0F380E008951F929D
:1039A0000F920FB60F9211242F933F934F935F9373
:1039B0006F937F938F939F93AF93BF93EF93FF93F7
:1039C0008091B90090E0887F90708036910509F46D
:1039D000F2C081369105CCF58832910509F47BC09F
:1039E00089329105B4F48031910509F46FC08131B9
:1039F00091053CF4009709F447C1089709F04FC1BD
:103A000065C08831910509F466C0809709F047C107
:103A100082C08034910509F4A4C08134910544F436
:103A20008033910509F482C0C89709F038C189C074
:103A30008035910509F489C08835910509F496C04F
:103A40008834910509F02BC1AEC08839910509F47D
:103A500013C189399105ECF48837910509F4ABC09D
:103A6000893791054CF48836910509F4A4C0803754
:103A7000910509F014C19FC08838910509F4FCC074
:103A80008039910509F49DC08038910509F007C17E
:103A900098C0803B910509F4C6C0813B91054CF468
:103AA000803A910509F49FC0883A910509F0F7C062
:103AB000BAC0803C910509F4E3C0883C910509F443
:103AC000DFC0883B910509F0EAC0C2C080917B0449
:103AD0008093BB00CFC09091A2048091A30498175B
:103AE00068F49091A204E92FF0E0EE57FB4F80813B
:103AF0008093BB009F5F9093A204BCC080917C0424
:103B0000882309F44BC085ED8093BC008091BC00F4
:103B100084FDFCCFC2C080E28093E70485ED8093F2
:103B2000BC008091BC0084FDFCCFB7C080E38093D3
:103B3000E70485ED8093BC008091BC0084FDFCCF40
:103B4000ACC088E38093E7049BC08091A20490916D
:103B5000BB00E82FF0E0EE57FB4F90838F5F809320
:103B6000A2049091A2048091A30482C08091A20437
:103B70009091BB00E82FF0E0EE57FB4F90838F5FF2
:103B80008093A20480917C04882341F085ED80938A
:103B9000BC008091BC0084FDFCCF7FC081E080939D
:103BA0007D0484EA6EC085ED8093BC008091BC00EA
:103BB00084FDFCCF72C083E080937A041092E60407
:103BC00059C08091E604803208F056C08091E60426
:103BD0009091BB00E82FF0E0EA53FB4F90838F5F9A
:103BE0008093E60447C08091E604803230F4E0918F
:103BF000E604F0E0EA53FB4F108285ED8093BC00B1
:103C00008091BC0084FDFCCF10927A046091E604A0
:103C1000E0918004F091810486EC94E070E00995D5
:103C20001092E6042DC084E080937A041092C404BC
:103C30001092C504E0917E04F0917F040995809173
:103C4000C504882329F481E08093C5041092A4045C
:103C50009091C404E92FF0E0EC55FB4F80818093F4
:103C6000BB009F5F9093C4049091C4048091C504ED
:103C7000981710F485EC01C085E88093BC000FC054
:103C800085EC8093BC0009C01092E70485ED809319
:103C9000BC008091BC0084FDFCCF10927A04FF919F
:103CA000EF91BF91AF919F918F917F916F915F91B4
:103CB0004F913F912F910F900FBE0F901F9018952D
:103CC00010927A0481E080937C0410927D0482E15A
:103CD00061E088D483E161E085D4E9EBF0E08081A4
:103CE0008E7F808380818D7F808388E48093B8007D
:103CF00085E48093BC0008952CB5382F33702C7F59
:103D0000322B3CBD2DB590E095958795959587957F
:103D100081702E7F822B8DBD08958AE061E062D490
:103D20008AE061E020D48CB580618CBD8CB5806464
:103D30008CBD8DE061E017D48BE061E014C4089580
:103D40001F920F920FB60F9211242F933F934F9310
:103D50008F939F93EF93FF938091C00082FD1DC0CE
:103D60004091C60020912805309129052F5F3F4FD3
:103D70002F73307080912A0590912B0528173907F1
:103D800071F0E0912805F0912905E851FB4F40833F
:103D9000309329052093280502C08091C600FF9129
:103DA000EF919F918F914F913F912F910F900FBE67
:103DB0000F901F901895E0917C05F0917D05E05CD7
:103DC000FF4F8191919120813181821B930B8F73E1
:103DD0009070892B09F0B3CF08951F920F920FB600
:103DE0000F9211242F933F938F939F93EF93FF9301
:103DF00020916C0530916D0580916E0590916F0555
:103E00002817390731F48091C1008F7D8093C1005C
:103E100014C0E0916E05F0916F05E45DFA4F2081CA
:103E200080916E0590916F0501968F7390709093BD
:103E30006F0580936E052093C600FF91EF919F91CF
:103E40008F913F912F910F900FBE0F901F9018955B
:103E5000AF92BF92DF92EF92FF920F931F93CF9397
:103E6000DF93EC017A018B01DD24403081EE5807AD
:103E700080E0680780E0780711F0DD24D39491E0BA
:103E8000A92EB12CEC89FD89DD2069F0C50108A0BF
:103E900002C0880F991F0A94E2F7808360E079E0FE
:103EA0008DE390E005C0108260E874E88EE190E058
:103EB000A80197011ED421503040404050405695F3
:103EC00047953795279580E12030380720F0DD2091
:103ED00011F0DD24D7CFE889F9893083EA89FB899D
:103EE000208319A2EE89FF89408121E030E0C901D9
:103EF0000C8C02C0880F991F0A94E2F7482B40836C
:103F0000EE89FF894081C9010D8C02C0880F991F7D
:103F10000A94E2F7482B4083EE89FF894081C9016A
:103F20000E8C02C0880F991F0A94E2F7482B408339
:103F3000EE89FF8980810F8C02C0220F331F0A9403
:103F4000E2F7209528232083DF91CF911F910F91D5
:103F5000FF90EF90DF90BF90AF900895DC011C962A
:103F6000ED91FC911D97E05CFF4F21913191808193
:103F70009181281B390B2F733070C9010895DC0122
:103F80001C96ED91FC911D97E05CFF4F20813181E3
:103F9000E054F040DF01AE5BBF4F8D919C911197D3
:103FA0002817390719F42FEF3FEF07C08D919C9127
:103FB000E80FF91F8081282F30E0C9010895DC0146
:103FC0001C96ED91FC911D97E05CFF4F20813181A3
:103FD000E054F040DF01AE5BBF4F8D919C91119793
:103FE0002817390719F42FEF3FEF10C08D919C91DE
:103FF0001197E80FF91F20818D919C9111970196DF
:104000008F73907011969C938E9330E0C901089540
:10401000DC0191968C919197882339F05496ED911B
:10402000FC915597808186FFF9CF91961C92089557
:10403000CF93DF93EC01EE85FF85E05CFF4F20819D
:104040003181E054F0402F5F3F4F2F733070DF011C
:10405000AE5BBF4F8D919C91119728173907D1F313
:10406000E05CFF4F80819181E054F040E80FF91F40
:104070006083EE85FF85E05CFF4F31832083EE890E
:10408000FF89208181E090E00F8C02C0880F991F8A
:104090000A94E2F7282B208381E089A3EC89FD892B
:1040A00080818064808381E090E0DF91CF910895EA
:1040B000109273051092720588EE93E0A0E0B0E0D4
:1040C0008093740590937505A0937605B09377055A
:1040D00080E292E0909371058093700588EE94E001
:1040E00090937D0580937C058CE295E090937F050D
:1040F00080937E0585EC90E0909381058093800508
:1041000084EC90E0909383058093820580EC90E0AE
:10411000909385058093840581EC90E090938705CA
:104120008093860582EC90E09093890580938805C2
:1041300086EC90E090938B0580938A0584E08093D1
:104140008C0583E080938D0587E080938E0585E064
:1041500080938F0581E0809390050895CF92DF9240
:10416000EF92FF920F931F93CF93DF937C016B012C
:104170008A01C0E0D0E00FC0D6016D916D01D7017A
:10418000ED91FC910190F081E02DC7010995C80FD8
:10419000D91F015010400115110571F7CE01DF91B3
:1041A000CF911F910F91FF90EF90DF90CF900895E6
:1041B000EF92FF920F931F938C01DC01ED91FC9124
:1041C0000190F081E02D6DE009957C01D801ED9121
:1041D000FC910190F081E02DC8016AE009959C01F5
:1041E0002E0D3F1DC9011F910F91FF90EF90089573
:1041F000CF93DF93EC016115710519F420E030E0F5
:104200000FC0DB010D900020E9F71197A61BB70B3B
:10421000E881F9810280F381E02DAD0109959C01CF
:10422000C901DF91CF910895E3CF0895EF92FF92F6
:104230000F931F937C01DCDF8C01C701B9DF080FEE
:10424000191FC8011F910F91FF90EF9008958230C0
:1042500000F5E82FF0E0EE0FFF1FEE56FA4F7183E6
:104260006083882319F08130A1F408C0809169002F
:104270008C7F842B80936900E89A0895809169006F
:10428000440F551F440F551F837F842B8093690073
:10429000E99A08951F920F920FB60F9211242F934F
:1042A0003F934F935F936F937F938F939F93AF93BE
:1042B000BF93EF93FF938091920590919305892B83
:1042C00029F0E0919205F09193050995FF91EF9106
:1042D000BF91AF919F918F917F916F915F914F911E
:1042E0003F912F910F900FBE0F901F9018951F9226
:1042F0000F920FB60F9211242F933F934F935F931A
:104300006F937F938F939F93AF93BF93EF93FF939D
:104310008091940590919505892B29F0E091940561
:10432000F09195050995FF91EF91BF91AF919F9104
:104330008F917F916F915F914F913F912F910F904E
:104340000FBE0F901F901895CF93DF93D1D00E948E
:10435000D104CBEDDEE10E949A042097E1F32BDD3E
:10436000FACF1F920F920FB60F9211242F933F9303
:104370008F939F93AF93BF9380919A0590919B05E4
:10438000A0919C05B0919D0530919E050196A11DBF
:10439000B11D232F2D5F2D3720F02D570196A11D24
:1043A000B11D20939E0580939A0590939B05A09341
:1043B0009C05B0939D058091960590919705A091DD
:1043C0009805B09199050196A11DB11D80939605A0
:1043D00090939705A0939805B0939905BF91AF91DD
:1043E0009F918F913F912F910F900FBE0F901F9033
:1043F00018959FB7F89420919605309197054091B4
:1044000098055091990586B5A89B06C08F3F21F06D
:104410002F5F3F4F4F4F5F4F9FBF542F432F322F80
:104420002227280F311D411D511D82E0220F331F0D
:10443000441F551F8A95D1F7B901CA0108959B0100
:10444000AC017FB7F8948091960590919705A09163
:104450009805B091990566B5A89B05C06F3F19F006
:104460000196A11DB11D7FBFBA2FA92F982F8827B4
:10447000860F911DA11DB11D62E0880F991FAA1F13
:10448000BB1F6A95D1F7BC012DC0FFB7F89480918E
:10449000960590919705A0919805B0919905E6B57C
:1044A000A89B05C0EF3F19F00196A11DB11DFFBFEC
:1044B000BA2FA92F982F88278E0F911DA11DB11DEE
:1044C000E2E0880F991FAA1FBB1FEA95D1F7861B50
:1044D000970B885E9340C8F22150304040405040D6
:1044E00068517C4F211531054105510571F608953C
:1044F000789484B5826084BD84B5816084BD85B5BF
:10450000826085BD85B5816085BDEEE6F0E0808185
:1045100081608083E1E8F0E01082808182608083A6
:10452000808181608083E0E8F0E080818160808329
:10453000E1EBF0E0808184608083E0EBF0E080815B
:1045400081608083EAE7F0E08081846080838081FD
:1045500082608083808181608083808180688083A5
:104560001092C1000895CF93DF93482F50E0CA0105
:1045700086569F4FFC0134914A575F4FFA01849150
:10458000882369F190E0880F991FFC01E859FF4FDB
:10459000A591B491FC01EE58FF4FC591D4916623CB
:1045A00051F42FB7F8948C91932F909589238C9385
:1045B000888189230BC0623061F42FB7F8948C9105
:1045C000932F909589238C938881832B88832FBF89
:1045D00006C09FB7F8948C91832B8C939FBFDF917B
:1045E000CF910895482F50E0CA0182559F4FFC019A
:1045F0002491CA0186569F4FFC0194914A575F4F00
:10460000FA013491332309F440C0222351F12330BD
:1046100071F0243028F42130A1F0223011F514C0BB
:104620002630B1F02730C1F02430D9F404C0809195
:1046300080008F7703C0809180008F7D8093800001
:1046400010C084B58F7702C084B58F7D84BD09C04A
:104650008091B0008F7703C08091B0008F7D8093F0
:10466000B000E32FF0E0EE0FFF1FEE58FF4FA591D3
:10467000B4912FB7F894662321F48C9190958923F7
:1046800002C08C91892B8C932FBF0895629FD0011B
:10469000739FF001829FE00DF11D649FE00DF11DFD
:1046A000929FF00D839FF00D749FF00D659FF00DAC
:1046B0009927729FB00DE11DF91F639FB00DE11D99
:1046C000F91FBD01CF0111240895AA1BBB1B51E1A5
:1046D00007C0AA1FBB1FA617B70710F0A61BB70B72
:1046E000881F991F5A95A9F780959095BC01CD0117
:1046F0000895A1E21A2EAA1BBB1BFD010DC0AA1F23
:10470000BB1FEE1FFF1FA217B307E407F50720F03A
:10471000A21BB30BE40BF50B661F771F881F991FB5
:104720001A9469F760957095809590959B01AC01FE
:10473000BD01CF01089597FB092E05260ED057FD28
:1047400004D0D7DF0AD0001C38F45095409530953E
:1047500021953F4F4F4F5F4F0895F6F79095809505
:10476000709561957F4F8F4F9F4F0895EE0FFF1FFC
:0C4770000590F491E02D0994F894FFCF1F
:10477C0053756363657366756C6C7920496E6974E7
:10478C0069616C697A656420746865204D50553692
:10479C00303030004661696C656420746F20496E5E
:1047AC00697469616C697A6520746865204D50552F
:1047BC00363030300053756363657366756C6C7995
:1047CC0020496E697469616C697A656420746865E6
:1047DC0020484D4335383833004661696C65642098
:1047EC00746F20496E697469616C697A65207468AC
:1047FC006520484D43353838330046696E69736817
:10480C00656420496E697469616C697A6174696F59
:10481C006E00004449596400DB0FC9009CB176005E
:10482C00ECB63E00BBD51F00AEFA0F0055FF0700DB
:10483C00EBFF0300FDFF0100000001000080000001
:10484C0000400000002000000010000000080000E4
:10485C0000040000000200000001000080000000C5
:10486C0040000000200000001000000008000000C4
:10487C000400000002000000010000000000000025
:10488C00BC1B8C1B451B4E1B631B741B00000000C8
:0C489C001820AE20AE1FDF1FBF1F082039
:00000001FF
